:020000040800F2
:10000000000400202501000895010008CB07000826
:10001000950100089501000869060008000000002D
:100020000000000000000000000000009501000832
:100030009501000800000000950100082D06000849
:100040009501000895010008950100089501000838
:100050009501000895010008950100089501000828
:100060009501000895010008950100089501000818
:100070009501000895010008950100089501000808
:100080009501000895010008950100080000000096
:1000900000000000000000000000000095010008C2
:1000A00095010008950100089501000895010008D8
:1000B00095010008950100089501000895010008C8
:1000C00095010008950100089501000895010008B8
:1000D00095010008950100089501000895010008A8
:1000E0009501000895010008950100080000000036
:1000F0000000000000000000000000000000000000
:1001000000000000000000000000000000000000EF
:1001100000000000000000009501000895010008A3
:100120005FF808F180B582B000AF40F2E473C0F62A
:1001300000037B6040F20003C2F200033B600BE06F
:100140007B681A683B681A603B6803F104033B60F4
:100150007B6803F104037B603A6840F20003C2F25B
:1001600000039A42ECD3094809494FF00002884243
:10017000B8BF40F8042BFFF6FAAF00F00FF800F01C
:100180008BFA07F10807BD4680BD00000000002083
:100190000000002080B400AFFEE700BF80B500AFD4
:1001A0004FF48053C4F202034FF48052C4F20202AF
:1001B000126842F001021A604FF48052C4F2020247
:1001C0004FF48053C4F2020359684FF00003CFF696
:1001D000FF030B4053604FF48053C4F202034FF40B
:1001E0008052C4F20202126822F0847222F4803239
:1001F0001A604FF48053C4F202034FF48052C4F2E9
:100200000202126822F480221A604FF48053C4F272
:1002100002034FF48052C4F20202526822F4FE023A
:100220005A604FF48053C4F202034FF41F029A60E5
:100230004FF48053C4F202034FF00002DA6200F080
:1002400009F84FF46D43CEF200034FF000629A605C
:1002500080BD00BF80B500AF00F002F880BD00BFD8
:1002600080B483B000AF4FF000037B604FF0000319
:100270003B604FF48053C4F202034FF48052C4F247
:100280000202126842F480321A604FF48053C4F2C2
:1002900002031B6803F400333B607B6803F1010336
:1002A0007B603B68002B03D17B68B3F5A06FECD17A
:1002B0004FF48053C4F202031B6803F40033002B95
:1002C00003D04FF001033B6002E04FF000033B60BE
:1002D0003B68012B6DD14FF48053C4F202034FF4FD
:1002E0008052C4F2020252685A604FF48053C4F242
:1002F00002034FF48052C4F2020252685A604FF473
:100300008053C4F202034FF48052C4F202025268D6
:100310005A604FF48053C4F202034FF48052C4F287
:100320000202526822F47C125A604FF48053C4F2E5
:1003300002034FF48052C4F20202526842F498124F
:100340005A604FF48053C4F202034FF48052C4F257
:100350000202126842F080721A6000BF4FF48053AC
:10036000C4F202031B6803F00073002BF6D04FF4B5
:100370008053C4F202034FF48052C4F20202526866
:1003800022F003025A604FF48053C4F202034FF488
:100390008052C4F20202526842F002025A6000BF68
:1003A0004FF48053C4F202035B6803F00C03082B84
:1003B000F6D107F10C07BD4680BC704780B489B008
:1003C00000AF786039604FF00003FB614FF000032D
:1003D0003B614FF00003BB614FF00003FB604FF047
:1003E00000037B614FF00003BB603B68DB7803F0E8
:1003F0000F03FB613B68DB7803F01003002B04D094
:100400003B689B78FA691343FB613B681B88DBB24E
:10041000002B4ED07B681B687B614FF00003BB61F3
:1004200041E0BB694FF0010202FA03F3FB603B6855
:100430001B881A46FB6813403B613A69FB689A4285
:100440002DD1BB694FEA8303FB60FB684FF00F02BD
:1004500002FA03F3BB60BB686FEA03037A691340D7
:100460007B61FB68FA6902FA03F37A6913437B61E3
:100470003B68DB78282B07D1BB694FF0010202FAF9
:1004800003F27B685A610AE03B68DB78482B06D1AF
:10049000BB694FF0010202FA03F27B681A61BB6983
:1004A00003F10103BB61BB69072BBAD97B687A6989
:1004B0001A603B681B88FF2B53D97B685B687B61A4
:1004C0004FF00003BB6146E0BB6903F108034FF046
:1004D000010202FA03F3FB603B681B881A46FB68C3
:1004E00013403B613A69FB689A4230D1BB694FEADD
:1004F0008303FB60FB684FF00F0202FA03F3BB605B
:10050000BB686FEA03037A6913407B61FB68FA6991
:1005100002FA03F37A6913437B613B68DB78282B8B
:1005200008D1BB6903F108034FF0010202FA03F29C
:100530007B685A613B68DB78482B08D1BB6903F1C3
:1005400008034FF0010202FA03F27B681A61BB69EB
:1005500003F10103BB61BB69072BB5D97B687A69DD
:100560005A6007F12407BD4680BC704780B483B051
:1005700000AF03463960FB7197F90730002B10DAA2
:100580004FF46D43CEF20003FA7902F00F02A2F1AC
:1005900004013A68D2B24FEA0212D2B25B181A765C
:1005A0000DE04FF46143CEF2000397F907103A686B
:1005B000D2B24FEA0212D2B25B1883F8002307F1DD
:1005C0000C07BD4680BC704780B582B000AF786034
:1005D0007A686FF07F439A4202D94FF001031FE01F
:1005E0004EF21003CEF200037A6822F07F4202F14D
:1005F000FF325A604FF0FF304FF00F01FFF7B6FFA8
:100600004EF21003CEF200034FF000029A604EF259
:100610001003CEF200034FF007021A604FF0000300
:10062000184607F10807BD4680BD00BF80B400AF83
:100630004FF48053C4F201034FF48052C4F201021C
:10064000D26882F48072DA604FF48053C4F20103FE
:100650004FF48052C4F20102D26882F40072DA6070
:10066000BD4680BC704700BF80B483B000AF01BE00
:100670004FF00003FB714FF46D43CEF200039B6A11
:1006800003F00073002B0CBF00230123FB7107F163
:100690000C07BD4680BC704780B584B000AF4FF0FA
:1006A00010004FF0010100F05BF84FF44073BB8085
:1006B0004FF01003FB714FF00203BB7107F104030D
:1006C0004FF48050C4F201001946FFF777FE4FF453
:1006D0008053C4F201034FF48052C4F20102D26885
:1006E00042F40072DA604FF4E000FFF76DFF4FF65E
:1006F000FF73C0F23F03FB6000BFFB68002B0CBF21
:1007000000230123DBB2FA6802F1FF32FA60002B0A
:10071000F3D14FF46D43CEF200034FF46D42CEF2AD
:100720000002526942F010025A614FF46D43CEF25A
:1007300000034FF46D42CEF20002526A42F480226E
:100740005A624FF004024FF0000392FBF3F3FB7286
:100750004FF00003184607F11007BD4680BD00BFEB
:1007600080B483B000AF78600B46FB70FB78002B41
:100770000CD04FF48053C4F202034FF48052C4F201
:10078000020291697A680A439A610DE04FF480533E
:10079000C4F202034FF48052C4F2020291697A68F3
:1007A0006FEA02020A409A6107F10C07BD4680BC5D
:1007B000704700BFABBE00F002B800207047002AAF
:1007C00000F0018010600120704706980188044AFB
:1007D000914240F00380043006907047FEE700002D
:0407E000ABBE0000AC
:0400000508000000EF
:00000001FF
